{
  "contractName": "Gaming",
  "abi": [
    {
      "inputs": [],
      "payable": true,
      "stateMutability": "payable",
      "type": "constructor"
    },
    {
      "anonymous": false,
      "inputs": [
        {
          "indexed": false,
          "internalType": "address",
          "name": "funder",
          "type": "address"
        },
        {
          "indexed": false,
          "internalType": "uint256",
          "name": "amount",
          "type": "uint256"
        }
      ],
      "name": "GameFunded",
      "type": "event"
    },
    {
      "anonymous": false,
      "inputs": [
        {
          "indexed": false,
          "internalType": "address",
          "name": "player",
          "type": "address"
        },
        {
          "indexed": false,
          "internalType": "uint256",
          "name": "amount",
          "type": "uint256"
        },
        {
          "indexed": false,
          "internalType": "uint256",
          "name": "mysteryNumber",
          "type": "uint256"
        },
        {
          "indexed": false,
          "internalType": "uint256",
          "name": "displayedNumber",
          "type": "uint256"
        }
      ],
      "name": "PlayerLost",
      "type": "event"
    },
    {
      "anonymous": false,
      "inputs": [
        {
          "indexed": false,
          "internalType": "address",
          "name": "player",
          "type": "address"
        },
        {
          "indexed": false,
          "internalType": "uint256",
          "name": "amount",
          "type": "uint256"
        },
        {
          "indexed": false,
          "internalType": "uint256",
          "name": "mysteryNumber",
          "type": "uint256"
        },
        {
          "indexed": false,
          "internalType": "uint256",
          "name": "displayedNumber",
          "type": "uint256"
        }
      ],
      "name": "PlayerWon",
      "type": "event"
    },
    {
      "anonymous": false,
      "inputs": [
        {
          "indexed": false,
          "internalType": "uint256",
          "name": "wager",
          "type": "uint256"
        },
        {
          "indexed": false,
          "internalType": "uint256",
          "name": "playerNumber",
          "type": "uint256"
        },
        {
          "indexed": false,
          "internalType": "uint256",
          "name": "mysteryNumber",
          "type": "uint256"
        },
        {
          "indexed": false,
          "internalType": "bool",
          "name": "guess",
          "type": "bool"
        },
        {
          "indexed": false,
          "internalType": "string",
          "name": "result",
          "type": "string"
        }
      ],
      "name": "RoundComplete",
      "type": "event"
    },
    {
      "anonymous": false,
      "inputs": [
        {
          "indexed": false,
          "internalType": "uint256",
          "name": "wager",
          "type": "uint256"
        },
        {
          "indexed": false,
          "internalType": "uint256",
          "name": "playerNumber",
          "type": "uint256"
        },
        {
          "indexed": false,
          "internalType": "uint256",
          "name": "mysteryNumber",
          "type": "uint256"
        },
        {
          "indexed": false,
          "internalType": "bool",
          "name": "guess",
          "type": "bool"
        },
        {
          "indexed": false,
          "internalType": "string",
          "name": "result",
          "type": "string"
        }
      ],
      "name": "RoundComplete4",
      "type": "event"
    },
    {
      "payable": true,
      "stateMutability": "payable",
      "type": "fallback"
    },
    {
      "constant": true,
      "inputs": [],
      "name": "losses",
      "outputs": [
        {
          "internalType": "uint256",
          "name": "",
          "type": "uint256"
        }
      ],
      "payable": false,
      "stateMutability": "view",
      "type": "function"
    },
    {
      "constant": true,
      "inputs": [
        {
          "internalType": "address",
          "name": "",
          "type": "address"
        }
      ],
      "name": "players",
      "outputs": [
        {
          "internalType": "uint256",
          "name": "wins",
          "type": "uint256"
        },
        {
          "internalType": "uint256",
          "name": "losses",
          "type": "uint256"
        }
      ],
      "payable": false,
      "stateMutability": "view",
      "type": "function"
    },
    {
      "constant": true,
      "inputs": [],
      "name": "wins",
      "outputs": [
        {
          "internalType": "uint256",
          "name": "",
          "type": "uint256"
        }
      ],
      "payable": false,
      "stateMutability": "view",
      "type": "function"
    },
    {
      "constant": false,
      "inputs": [],
      "name": "getWins",
      "outputs": [
        {
          "internalType": "uint256",
          "name": "",
          "type": "uint256"
        }
      ],
      "payable": true,
      "stateMutability": "payable",
      "type": "function"
    },
    {
      "constant": false,
      "inputs": [],
      "name": "getLosses",
      "outputs": [
        {
          "internalType": "uint256",
          "name": "",
          "type": "uint256"
        }
      ],
      "payable": true,
      "stateMutability": "payable",
      "type": "function"
    },
    {
      "constant": false,
      "inputs": [],
      "name": "getLosses333",
      "outputs": [
        {
          "internalType": "uint256",
          "name": "",
          "type": "uint256"
        }
      ],
      "payable": true,
      "stateMutability": "payable",
      "type": "function"
    },
    {
      "constant": true,
      "inputs": [
        {
          "internalType": "uint256",
          "name": "number",
          "type": "uint256"
        },
        {
          "internalType": "uint256",
          "name": "display",
          "type": "uint256"
        },
        {
          "internalType": "bool",
          "name": "guess",
          "type": "bool"
        }
      ],
      "name": "determineWinner",
      "outputs": [
        {
          "internalType": "bool",
          "name": "",
          "type": "bool"
        }
      ],
      "payable": false,
      "stateMutability": "pure",
      "type": "function"
    },
    {
      "constant": false,
      "inputs": [
        {
          "internalType": "uint256",
          "name": "display",
          "type": "uint256"
        },
        {
          "internalType": "bool",
          "name": "guess",
          "type": "bool"
        },
        {
          "internalType": "uint256",
          "name": "wager",
          "type": "uint256"
        }
      ],
      "name": "winOrLose",
      "outputs": [
        {
          "internalType": "bool",
          "name": "",
          "type": "bool"
        },
        {
          "internalType": "uint256",
          "name": "",
          "type": "uint256"
        },
        {
          "internalType": "uint256",
          "name": "",
          "type": "uint256"
        },
        {
          "internalType": "uint256",
          "name": "",
          "type": "uint256"
        }
      ],
      "payable": true,
      "stateMutability": "payable",
      "type": "function"
    },
    {
      "constant": false,
      "inputs": [
        {
          "internalType": "uint256",
          "name": "display",
          "type": "uint256"
        },
        {
          "internalType": "bool",
          "name": "guess",
          "type": "bool"
        }
      ],
      "name": "winOrLose4",
      "outputs": [
        {
          "internalType": "bool",
          "name": "",
          "type": "bool"
        },
        {
          "internalType": "uint256",
          "name": "",
          "type": "uint256"
        }
      ],
      "payable": true,
      "stateMutability": "payable",
      "type": "function"
    },
    {
      "constant": false,
      "inputs": [
        {
          "internalType": "uint256",
          "name": "display",
          "type": "uint256"
        },
        {
          "internalType": "bool",
          "name": "guess",
          "type": "bool"
        }
      ],
      "name": "winOrLose3",
      "outputs": [
        {
          "internalType": "bool",
          "name": "",
          "type": "bool"
        },
        {
          "internalType": "uint256",
          "name": "",
          "type": "uint256"
        }
      ],
      "payable": true,
      "stateMutability": "payable",
      "type": "function"
    },
    {
      "constant": false,
      "inputs": [],
      "name": "winOrLose2",
      "outputs": [
        {
          "internalType": "uint256",
          "name": "",
          "type": "uint256"
        }
      ],
      "payable": true,
      "stateMutability": "payable",
      "type": "function"
    },
    {
      "constant": false,
      "inputs": [],
      "name": "withdrawFunds",
      "outputs": [],
      "payable": false,
      "stateMutability": "nonpayable",
      "type": "function"
    },
    {
      "constant": false,
      "inputs": [],
      "name": "fundGame",
      "outputs": [],
      "payable": true,
      "stateMutability": "payable",
      "type": "function"
    }
  ],
  "bytecode": "0x6080604052336000806101000a81548173ffffffffffffffffffffffffffffffffffffffff021916908373ffffffffffffffffffffffffffffffffffffffff1602179055506001600060146101000a81548160ff021916908315150217905550600060018190555060006002819055506112408061007e6000396000f3fe6080604052600436106100c25760003560e01c80637844a3ba1161007f578063c3aabf2d11610059578063c3aabf2d146102f9578063c775539c14610317578063e169bf6c14610335578063e2eb41ff1461033f576100c2565b80637844a3ba14610211578063940c97aa1461026a578063c348893714610288576100c2565b8063171273a5146100c457806324600fc31461012d57806324de908d1461014457806330d450291461016f57806335e1983e146101c85780636f22d6a5146101e6575b005b3480156100d057600080fd5b50610113600480360360608110156100e757600080fd5b8101908080359060200190929190803590602001909291908035151590602001909291905050506103ab565b604051808215151515815260200191505060405180910390f35b34801561013957600080fd5b5061014261041a565b005b34801561015057600080fd5b50610159610508565b6040518082815260200191505060405180910390f35b6101a76004803603604081101561018557600080fd5b810190808035906020019092919080351515906020019092919050505061050e565b60405180831515151581526020018281526020019250505060405180910390f35b6101d0610870565b6040518082815260200191505060405180910390f35b3480156101f257600080fd5b506101fb61087a565b6040518082815260200191505060405180910390f35b6102496004803603604081101561022757600080fd5b8101908080359060200190929190803515159060200190929190505050610880565b60405180831515151581526020018281526020019250505060405180910390f35b610272610be2565b6040518082815260200191505060405180910390f35b6102ca6004803603606081101561029e57600080fd5b810190808035906020019092919080351515906020019092919080359060200190929190505050610d0c565b604051808515151515815260200184815260200183815260200182815260200194505050505060405180910390f35b61030161107f565b6040518082815260200191505060405180910390f35b61031f611089565b6040518082815260200191505060405180910390f35b61033d611093565b005b34801561034b57600080fd5b5061038e6004803603602081101561036257600080fd5b81019080803573ffffffffffffffffffffffffffffffffffffffff1690602001909291905050506111a5565b604051808381526020018281526020019250505060405180910390f35b60006001151582151514156103e157828411156103cb5760019050610413565b828410156103dc5760009050610413565b610412565b60001515821515141561041157828411156103ff5760009050610413565b828410156104105760019050610413565b5b5b5b9392505050565b6000809054906101000a900473ffffffffffffffffffffffffffffffffffffffff1673ffffffffffffffffffffffffffffffffffffffff163373ffffffffffffffffffffffffffffffffffffffff16146104bf576040517f08c379a00000000000000000000000000000000000000000000000000000000081526004018080602001828103825260218152602001806111eb6021913960400191505060405180910390fd5b3373ffffffffffffffffffffffffffffffffffffffff166108fc479081150290604051600060405180830381858888f19350505050158015610505573d6000803e3d6000fd5b50565b60015481565b60008060011515600060149054906101000a900460ff1615151461059a576040517f08c379a00000000000000000000000000000000000000000000000000000000081526004018080602001828103825260168152602001807f5468652067616d65206973206e6f74206f6e6c696e650000000000000000000081525060200191505060405180910390fd5b343373ffffffffffffffffffffffffffffffffffffffff163111610626576040517f08c379a00000000000000000000000000000000000000000000000000000000081526004018080602001828103825260128152602001807f496e73756666696369656e742066756e6473000000000000000000000000000081525060200191505060405180910390fd5b60006106306111c9565b9050600061063f8287876103ab565b90506000600360003373ffffffffffffffffffffffffffffffffffffffff1673ffffffffffffffffffffffffffffffffffffffff16815260200190815260200160002090506001151582151514156107995760018160000160008282540192505081905550600180600082825401925050819055503373ffffffffffffffffffffffffffffffffffffffff166108fc600234029081150290604051600060405180830381858888f193505050501580156106fd573d6000803e3d6000fd5b507f05bb7924248cee9db500cb69e17c14e314413ba322759d375d60e1cbbff7809034888589604051808581526020018481526020018381526020018215151515815260200180602001828103825260038152602001807f776f6e00000000000000000000000000000000000000000000000000000000008152506020019550505050505060405180910390a160018394509450505050610869565b600015158215151415610865576001816001016000828254019250508190555060016002600082825401925050819055507f72a8200ca7e7c30b1e73b9308514c0e4bc4b499c6cc862c03a87d43e8245176834888589604051808581526020018481526020018381526020018215151515815260200180602001828103825260048152602001807f6c6f7374000000000000000000000000000000000000000000000000000000008152506020019550505050505060405180910390a160008394509450505050610869565b5050505b9250929050565b6000600254905090565b60025481565b60008060011515600060149054906101000a900460ff1615151461090c576040517f08c379a00000000000000000000000000000000000000000000000000000000081526004018080602001828103825260168152602001807f5468652067616d65206973206e6f74206f6e6c696e650000000000000000000081525060200191505060405180910390fd5b343373ffffffffffffffffffffffffffffffffffffffff163111610998576040517f08c379a00000000000000000000000000000000000000000000000000000000081526004018080602001828103825260128152602001807f496e73756666696369656e742066756e6473000000000000000000000000000081525060200191505060405180910390fd5b60006109a26111c9565b905060006109b18287876103ab565b90506000600360003373ffffffffffffffffffffffffffffffffffffffff1673ffffffffffffffffffffffffffffffffffffffff1681526020019081526020016000209050600115158215151415610b0b5760018160000160008282540192505081905550600180600082825401925050819055503373ffffffffffffffffffffffffffffffffffffffff166108fc600234029081150290604051600060405180830381858888f19350505050158015610a6f573d6000803e3d6000fd5b507f05bb7924248cee9db500cb69e17c14e314413ba322759d375d60e1cbbff7809034888589604051808581526020018481526020018381526020018215151515815260200180602001828103825260038152602001807f776f6e00000000000000000000000000000000000000000000000000000000008152506020019550505050505060405180910390a160018394509450505050610bdb565b600015158215151415610bd7576001816001016000828254019250508190555060016002600082825401925050819055507f05bb7924248cee9db500cb69e17c14e314413ba322759d375d60e1cbbff7809034888589604051808581526020018481526020018381526020018215151515815260200180602001828103825260048152602001807f6c6f7374000000000000000000000000000000000000000000000000000000008152506020019550505050505060405180910390a160008394509450505050610bdb565b5050505b9250929050565b600060011515600060149054906101000a900460ff16151514610c6d576040517f08c379a00000000000000000000000000000000000000000000000000000000081526004018080602001828103825260168152602001807f5468652067616d65206973206e6f74206f6e6c696e650000000000000000000081525060200191505060405180910390fd5b343373ffffffffffffffffffffffffffffffffffffffff163111610cf9576040517f08c379a00000000000000000000000000000000000000000000000000000000081526004018080602001828103825260128152602001807f496e73756666696369656e742066756e6473000000000000000000000000000081525060200191505060405180910390fd5b6000610d036111c9565b90508091505090565b60008060008060011515600060149054906101000a900460ff16151514610d9b576040517f08c379a00000000000000000000000000000000000000000000000000000000081526004018080602001828103825260168152602001807f5468652067616d65206973206e6f74206f6e6c696e650000000000000000000081525060200191505060405180910390fd5b343373ffffffffffffffffffffffffffffffffffffffff163111610e27576040517f08c379a00000000000000000000000000000000000000000000000000000000081526004018080602001828103825260128152602001807f496e73756666696369656e742066756e6473000000000000000000000000000081525060200191505060405180910390fd5b6000610e316111c9565b90506000610e40828a8a6103ab565b90506000600360003373ffffffffffffffffffffffffffffffffffffffff1673ffffffffffffffffffffffffffffffffffffffff1681526020019081526020016000209050600115158215151415610fa05760018160000160008282540192505081905550600180600082825401925050819055503373ffffffffffffffffffffffffffffffffffffffff166108fc600234029081150290604051600060405180830381858888f19350505050158015610efe573d6000803e3d6000fd5b507f05bb7924248cee9db500cb69e17c14e314413ba322759d375d60e1cbbff78090348b858c604051808581526020018481526020018381526020018215151515815260200180602001828103825260038152602001807f776f6e00000000000000000000000000000000000000000000000000000000008152506020019550505050505060405180910390a1600183348a9650965096509650505050611076565b600015158215151415611072576001816001016000828254019250508190555060016002600082825401925050819055507f05bb7924248cee9db500cb69e17c14e314413ba322759d375d60e1cbbff78090348b858c604051808581526020018481526020018381526020018215151515815260200180602001828103825260048152602001807f6c6f7374000000000000000000000000000000000000000000000000000000008152506020019550505050505060405180910390a1600083348a9650965096509650505050611076565b5050505b93509350935093565b6000600154905090565b6000600254905090565b6000809054906101000a900473ffffffffffffffffffffffffffffffffffffffff1673ffffffffffffffffffffffffffffffffffffffff163373ffffffffffffffffffffffffffffffffffffffff1614611138576040517f08c379a00000000000000000000000000000000000000000000000000000000081526004018080602001828103825260218152602001806111eb6021913960400191505060405180910390fd5b7f5c963fd7fde519af29d56159e6e3e18db4e5d3e4716c39c87958cf9e4862ed583334604051808373ffffffffffffffffffffffffffffffffffffffff1673ffffffffffffffffffffffffffffffffffffffff1681526020018281526020019250505060405180910390a1565b60036020528060005260406000206000915090508060000154908060010154905082565b6000806001600a600143034060001c816111df57fe5b06019050809150509056fe4f6e6c79206f776e65722063616e2063616c6c20746869732066756e6374696f6ea265627a7a723158208edf89f409fad588b775a759566a96138c6a80e1481d0203bb0fa81d5df5f52e64736f6c63430005100032",
  "source": "pragma solidity 0.5.16;\n\ncontract Gaming {\n    /* Our Online gaming contract */\n    address owner;\n    bool online;\n\n    uint public wins;    /* public didnt allow me any advantage */\n    uint public losses;\n \n    struct Player {\n        uint wins;\n        uint losses;\n    }\n\n    mapping (address => Player) public players;\n    \n    function getWins() external payable returns ( uint ) { \n\treturn wins;\n    }\n    \n    function getLosses() external payable returns ( uint ) { \n\treturn losses;\n    }\n\n\n    function getLosses333() public payable returns ( uint ) { \n\treturn losses;\n    }\n\n    constructor() public payable {\n        owner = msg.sender;\n        online = true;\n\twins = 0;\n\tlosses = 0;\n    }\n\n    modifier isOwner() {\n        require(msg.sender == owner, \"Only owner can call this function\");\n        _;\n    }\n\n    event PlayerWon(address player, uint amount, uint mysteryNumber, uint displayedNumber);\n    event PlayerLost(address player, uint amount, uint mysteryNumber, uint displayedNumber);\n\n    event GameFunded(address funder, uint amount);\n\n    function mysteryNumber() private view returns (uint) {\n        uint randomNumber = uint(blockhash(block.number-1))%10 + 1;\n        return randomNumber;\n    }\n\n    function determineWinner(uint number, uint display, bool guess) public pure returns (bool) {\n        if (guess == true) {\n            if (number > display) {\n                return true;\n            }\n            if (number < display) {\n                return false;\n            }\n        } else if (guess == false) {\n            if (number > display) {\n                return false;\n            }\n            if (number < display) {\n                return true;\n            }\n        }\n    }\n\n    event RoundComplete(uint wager, uint playerNumber, uint mysteryNumber, bool guess, string result);\n    //function winOrLose(uint display, bool guess) external payable returns (bool, uint, uint) {\n    function winOrLose(uint display, bool guess, uint wager) external payable returns (bool, uint, uint, uint) {\n        /* Use true for a higher guess, false for a lower guess */\n        require(online == true, \"The game is not online\");\n        require(msg.sender.balance > msg.value, \"Insufficient funds\");\n        uint mysteryNumber_ = mysteryNumber();\n        bool isWinner = determineWinner(mysteryNumber_, display, guess);\n        Player storage player = players[msg.sender];\n        if (isWinner == true) {\n            /* Player won */\n            player.wins += 1;\n\t    wins += 1;\n            msg.sender.transfer(msg.value * 2);\n            //msg.sender.transfer(wager * 2);\n            emit RoundComplete(msg.value, display, mysteryNumber_, guess, \"won\");\n            return (true, mysteryNumber_, msg.value, wager );\n        } else if (isWinner == false) {\n            /* Player lost */\n            player.losses += 1;\n\t    losses += 1;\n            emit RoundComplete(msg.value, display, mysteryNumber_, guess, \"lost\");\n            return (false, mysteryNumber_,  msg.value, wager);\n        }\n    }\n\n    event RoundComplete4(uint wager, uint playerNumber, uint mysteryNumber, bool guess, string result);\n    function winOrLose4(uint display, bool guess) external payable returns (bool, uint) {\n        /* Use true for a higher guess, false for a lower guess */\n        require(online == true, \"The game is not online\");\n        require(msg.sender.balance > msg.value, \"Insufficient funds\");\n        uint mysteryNumber_ = mysteryNumber();\n        bool isWinner = determineWinner(mysteryNumber_, display, guess);\n        Player storage player = players[msg.sender];\n        if (isWinner == true) {\n            /* Player won */\n            player.wins += 1;\n\t    wins += 1;\n            msg.sender.transfer(msg.value * 2);\n            emit RoundComplete(msg.value, display, mysteryNumber_, guess, \"won\");\n            return (true, mysteryNumber_);\n        } else if (isWinner == false) {\n            /* Player lost */\n            player.losses += 1;\n\t    losses += 1;\n            emit RoundComplete4(msg.value, display, mysteryNumber_, guess, \"lost\");\n            return (false, mysteryNumber_);\n        }\n    }\n\n\n\n\n\n\n\n\n   function winOrLose3(uint display, bool guess) external payable returns (bool, uint) {\n        /* Use true for a higher guess, false for a lower guess */\n        require(online == true, \"The game is not online\");\n        require(msg.sender.balance > msg.value, \"Insufficient funds\");\n        uint mysteryNumber_ = mysteryNumber();\n        bool isWinner = determineWinner(mysteryNumber_, display, guess);\n        Player storage player = players[msg.sender];\n        if (isWinner == true) {\n            /* Player won */\n            player.wins += 1;\n\t    wins += 1;\n            msg.sender.transfer(msg.value * 2);\n            emit RoundComplete(msg.value, display, mysteryNumber_, guess, \"won\");\n            return (true, mysteryNumber_);\n        } else if (isWinner == false) {\n            /* Player lost */\n            player.losses += 1;\n\t    losses += 1;\n            emit RoundComplete(msg.value, display, mysteryNumber_, guess, \"lost\");\n            return (false, mysteryNumber_);\n        }\n    }\n\n    function winOrLose2() external payable returns ( uint) {\n        /* Use true for a higher guess, false for a lower guess */\n        require(online == true, \"The game is not online\");\n        require(msg.sender.balance > msg.value, \"Insufficient funds\");\n        uint mysteryNumber_ = mysteryNumber();\n \treturn (mysteryNumber_);\n\n\n     }\n\n\n\n\n\n\n\n    function withdrawFunds() public isOwner {\n        msg.sender.transfer(address(this).balance);\n    }\n\n    function fundGame() public isOwner payable {\n        emit GameFunded(msg.sender, msg.value);\n    }\n\n    function() external payable {\n    }\n\n}\n",
  "sourcePath": "/home/ubuntu/packt/contracts/Gaming.sol",
  "compiler": {
    "name": "solc",
    "version": "0.5.16+commit.9c3226ce.Emscripten.clang"
  },
  "schemaVersion": "3.2.3",
  "updatedAt": "2022-01-07T11:34:21.219Z",
  "networkType": "ethereum",
  "devdoc": {
    "methods": {}
  },
  "userdoc": {
    "methods": {}
  }
}